S012000046494E414C5F4D43414C2E737265632C
S113000061C000006FC000006DC000006BC0000044
S113001069C0000067C0000065C0000063C0000044
S113002061C00000E7C0000089C000000FC50000E7
S11300304BC2000057C00000EBC1000090C100009B
S113004032C100004FC000004DC000004BC0000092
S113005049C0000047C0000045C0000043C0000084
S113006041C0000020C50000E5C200003BC0000004
S113007039C0000082C2000035C0000033C0000057
S113008031C000002FC000002DC0000082038D038A
S11300909803A303AE03B903C603DC03E803F40324
S11300A000040C041804260443044E045904640494
S11300B06F047A048704D504E004EB04F604010514
S11300C00C05190511241FBECFEFD0E1DEBFCDBF53
S11300D021E0A0E0B1E001C01D92A435B207E1F730
S11300E002D077C58DCF41E061E085E0FCD241E0EC
S11300F061E085E0B9D341E060E080E0F4D241E022
S113010067E080E0F0D240E060E080E0ADD340E022
S113011067E080E0A9D3F4D4C0E00DC08C2F17D5DC
S113012034D52FEF81EE94E0215080409040E1F7E8
S113013000C00000CF5FC43688F3EECF1F920F9249
S11301400FB60F9211240BB60F922F933F934F9338
S11301505F936F937F938F939F93AF93BF93EF932B
S1130160FF938091000190910101A0910201B0914F
S113017003010196A11DB11D80930001909301011B
S1130180A0930201B0930301409100015091010139
S1130190609102017091030180913C0190913D01B5
S11301A0A0913E01B0913F01481759076A077B07A8
S11301B071F4109200011092010110920201109248
S11301C0030167E080E0E8D38091380184BDFF91AA
S11301D0EF91BF91AF919F918F917F916F915F91BB
S11301E04F913F912F910F900BBE0F900FBE0F9028
S11301F01F9018951F920F920FB60F9211240BB6F1
S11302000F922F933F934F935F936F937F938F93AB
S11302109F93AF93BF93EF93FF93809104019091C9
S11302200501A0910601B09107010196A11DB11D20
S11302308093040190930501A0930601B0930701F4
S113024040910401509105016091060170910701EC
S11302508091500190915101A0915201B0915301AC
S1130260481759076A077B0759F410920401109242
S11302700501109206011092070167E080E08CD31B
S1130280FF91EF91BF91AF919F918F917F916F916A
S11302905F914F913F912F910F900BBE0F900FBE26
S11302A00F901F9018951F920F920FB60F92112462
S11302B00BB60F922F933F934F935F936F937F935C
S11302C08F939F93AF93BF93EF93FF938091180104
S11302D090911901A0911A01B0911B010196A11DE1
S11302E0B11D8093180190931901A0931A01B09342
S11302F01B01409118015091190160911A017091EC
S11303001B018091280190912901A0912A01B091AB
S11303102B01481759076A077B0771F410921801DB
S11303201092190110921A0110921B0160E080E0F2
S113033033D38091240182BFFF91EF91BF91AF919C
S11303409F918F917F916F915F914F913F912F91E9
S11303500F900BBE0F900FBE0F901F9018951F9219
S11303600F920FB60F9211240BB60F922F933F9357
S11303704F935F936F937F938F939F93AF93BF93A9
S1130380EF93FF9380911C0190911D01A0911E0198
S1130390B0911F010196A11DB11D80931C01909382
S11303A01D01A0931E01B0931F0140911C015091A7
S11303B01D0160911E0170911F0180914C0190916B
S11303C04D01A0914E01B0914F01481759076A079A
S11303D07B0759F410921C0110921D0110921E010A
S11303E010921F0160E080E0D7D2FF91EF91BF919E
S11303F0AF919F918F917F916F915F914F913F91B9
S11304002F910F900BBE0F900FBE0F901F90189559
S11304101F920F920FB60F9211240BB60F922F93C7
S11304203F934F935F936F937F938F939F93AF9378
S1130430BF93EF93FF938091100190911101A091CC
S11304401201B09113010196A11DB11D80931001F9
S113045090931101A0931201B093130140911001E4
S11304605091110160911201709113018091340136
S113047090913501A0913601B09137014817590781
S11304806A077B0771F41092100110921101109207
S113049012011092130160E080E07ED2809130015D
S11304A08CBDFF91EF91BF91AF919F918F917F91FF
S11304B06F915F914F913F912F910F900BBE0F90D1
S11304C00FBE0F901F9018951F920F920FB60F92A8
S11304D011240BB60F922F933F934F935F936F9317
S11304E07F938F939F93AF93BF93EF93FF938091E9
S11304F0140190911501A0911601B0911701019674
S1130500A11DB11D8093140190931501A0931601B0
S1130510B093170140911401509115016091160197
S11305207091170180912C0190912D01A0912E01C1
S1130530B0912F01481759076A077B0759F41092A5
S1130540140110921501109216011092170160E027
S113055080E022D2FF91EF91BF91AF919F918F9153
S11305607F916F915F914F913F912F910F900BBEAF
S11305700F900FBE0F901F9018951F920F920FB6F9
S11305800F9211240BB60F922F933F934F935F93C7
S11305906F937F938F939F93AF93BF93EF93FF9347
S11305A08091080190910901A0910A01B0910B0179
S11305B00196A11DB11D8093080190930901A09398
S11305C00A01B0930B014091080150910901609117
S11305D00A0170910B018091480190914901A09109
S11305E04A01B0914B01481759076A077B0779F410
S11305F0109208011092090110920A0110920B0145
S113060060E080E0C9D18091440180938800FF912B
S1130610EF91BF91AF919F918F917F916F915F9176
S11306204F913F912F910F900BBE0F900FBE0F90E3
S11306301F9018951F920F920FB60F9211240BB6AC
S11306400F922F933F934F935F936F937F938F9367
S11306509F93AF93BF93EF93FF9380910C0190917D
S11306600D01A0910E01B0910F010196A11DB11DC4
S113067080930C0190930D01A0930E01B0930F0190
S113068040910C0150910D0160910E0170910F0188
S11306908091400190914101A0914201B0914301A8
S11306A0481759076A077B0759F410920C011092F6
S11306B00D0110920E0110920F0160E080E06CD1E8
S11306C0FF91EF91BF91AF919F918F917F916F9126
S11306D05F914F913F912F910F900BBE0F900FBEE2
S11306E00F901F901895442309F45DC0413009F020
S11306F0BAC090E08730910508F0B5C0FC01EA5B10
S1130700FF4F4FC22AB381E090E002C0880F991FC7
S11307106A95E2F7822B8ABB089527B381E090E0C3
S113072002C0880F991F6A95E2F7822B87BB089550
S113073024B381E090E002C0880F991F6A95E2F724
S1130740822B84BB089521B381E090E002C0880F1E
S1130750991F6A95E2F7822B81BB089522B181E04B
S113076090E002C0880F991F6A95E2F7822B82B944
S11307700895E1E6F0E0208181E090E002C0880F76
S1130780991F6A95E2F7822B80830895E4E6F0E0EE
S1130790208181E090E002C0880F991F6A95E2F7FA
S11307A0822B8083089590E08730910508F05BC028
S11307B0FC01E35BFF4FF5C12AB381E090E002C086
S11307C0880F991F6A95E2F7809582238ABB089562
S11307D027B381E090E002C0880F991F6A95E2F781
S11307E08095822387BB089524B381E090E002C002
S11307F0880F991F6A95E2F78095822384BB089538
S113080021B381E090E002C0880F991F6A95E2F756
S11308108095822381BB089522B181E090E002C0DB
S1130820880F991F6A95E2F78095822382B908950B
S1130830E1E6F0E0208181E090E002C0880F991F9A
S11308406A95E2F78095822380830895E4E6F0E0D8
S1130850208181E090E002C0880F991F6A95E2F739
S11308608095822380830895442309F45DC0413038
S113087009F091C090E08730910508F08CC0FC012C
S1130880EC5AFF4F8EC12BB381E090E002C0880F79
S1130890991F6A95E2F7822B8BBB089528B381E0F8
S11308A090E002C0880F991F6A95E2F7822B88BBFB
S11308B0089525B381E090E002C0880F991F6A95DE
S11308C0E2F7822B85BB089522B381E090E002C059
S11308D0880F991F6A95E2F7822B82BB089523B192
S11308E081E090E002C0880F991F6A95E2F7822B9D
S11308F083B90895E2E6F0E0208181E090E002C04F
S1130900880F991F6A95E2F7822B80830895E5E6A4
S1130910F0E0208181E090E002C0880F991F6A9581
S1130920E2F7822B80830895813091F028F08230A1
S1130930D9F0833029F108952BB381E090E002C00F
S1130940880F991F6A95E2F7809582238BBB0895DF
S113095028B381E090E002C0880F991F6A95E2F7FE
S11309608095822388BB089525B381E090E002C07E
S1130970880F991F6A95E2F78095822385BB0895B5
S113098022B381E090E002C0880F991F6A95E2F7D4
S11309908095822382BB089590E08730910508F00A
S11309A054C0FC01E55AFF4FFCC02BB381E090E03A
S11309B002C0880F991F6A95E2F782278BBB0895BE
S11309C028B381E090E002C0880F991F6A95E2F78E
S11309D0822788BB089525B381E090E002C0880F88
S11309E0991F6A95E2F7822785BB089522B381E0B7
S11309F090E002C0880F991F6A95E2F7822782BBB4
S1130A00089523B181E090E002C0880F991F6A9590
S1130A10E2F7822783B90895E2E6F0E0208181E0DD
S1130A2090E002C0880F991F6A95E2F782278083BD
S1130A300895E5E6F0E0208181E090E002C0880FAF
S1130A40991F6A95E2F78227808308951F920F9277
S1130A500FB60F9211240BB60F922F933F934F931F
S1130A605F936F937F938F939F93AF93BF93EF9312
S1130A70FF93E0912001F0912101309709F009954D
S1130A80FF91EF91BF91AF919F918F917F916F9162
S1130A905F914F913F912F910F900BBE0F900FBE1E
S1130AA00F901F9018951F920F920FB60F9211245A
S1130AB00BB60F922F933F934F935F936F937F9354
S1130AC08F939F93AF93BF93EF93FF93E091220192
S1130AD0F0912301309709F00995FF91EF91BF91AF
S1130AE0AF919F918F917F916F915F914F913F91C2
S1130AF02F910F900BBE0F900FBE0F901F90189563
S1130B0041E063E084E0EFDDEBE8F0E080818E7F9C
S1130B108083808182608083AAE8B0E08C918860C1
S1130B208C938C9180618C9380818F7B8083808176
S1130B308068808341E063E084E096DE8FB780685C
S1130B408FBFEDE7F0E08081806180830895E0E865
S1130B50F0E020E034E03183208340815181282F6C
S1130B60249FC001259F900D11249C013695279543
S1130B7036952795ABE7B4E11DD0969587950197F7
S1130B8090938700809386000895EAE8F0E08081DE
S1130B908160808380818D7F808380818460808375
S1130BA00895EE0FFF1F0024001C0BBE0790F69162
S1130BB0E02D0994A29FB001B39FC001A39F700DC3
S1130BC0811D1124911DB29F700D811D1124911D51
S1090BD00895F894FFCF24
S9030000FC
